{
  "_format": "hh-sol-artifact-1",
  "contractName": "Election",
  "sourceName": "contracts/Election.sol",
  "abi": [
    {
      "inputs": [
        {
          "internalType": "address",
          "name": "_owner",
          "type": "address"
        }
      ],
      "stateMutability": "nonpayable",
      "type": "constructor"
    },
    {
      "inputs": [
        {
          "internalType": "uint256",
          "name": "_id",
          "type": "uint256"
        },
        {
          "internalType": "string",
          "name": "_name",
          "type": "string"
        }
      ],
      "name": "addCandidate",
      "outputs": [],
      "stateMutability": "nonpayable",
      "type": "function"
    },
    {
      "inputs": [
        {
          "internalType": "string",
          "name": "_voterid",
          "type": "string"
        },
        {
          "internalType": "string",
          "name": "_faceHash",
          "type": "string"
        }
      ],
      "name": "addVoter",
      "outputs": [],
      "stateMutability": "nonpayable",
      "type": "function"
    },
    {
      "inputs": [
        {
          "internalType": "uint256",
          "name": "",
          "type": "uint256"
        }
      ],
      "name": "candidateList",
      "outputs": [
        {
          "internalType": "uint256",
          "name": "id",
          "type": "uint256"
        },
        {
          "internalType": "string",
          "name": "name",
          "type": "string"
        },
        {
          "internalType": "uint256",
          "name": "voteCount",
          "type": "uint256"
        }
      ],
      "stateMutability": "view",
      "type": "function"
    },
    {
      "inputs": [
        {
          "internalType": "string",
          "name": "_voterId",
          "type": "string"
        },
        {
          "internalType": "uint256",
          "name": "candidateId",
          "type": "uint256"
        },
        {
          "internalType": "string",
          "name": "_faceHash",
          "type": "string"
        }
      ],
      "name": "vote",
      "outputs": [],
      "stateMutability": "nonpayable",
      "type": "function"
    },
    {
      "inputs": [
        {
          "internalType": "string",
          "name": "",
          "type": "string"
        }
      ],
      "name": "voterList",
      "outputs": [
        {
          "internalType": "string",
          "name": "voterid",
          "type": "string"
        },
        {
          "internalType": "bool",
          "name": "voted",
          "type": "bool"
        },
        {
          "internalType": "bool",
          "name": "isvoter",
          "type": "bool"
        },
        {
          "internalType": "string",
          "name": "faceHash",
          "type": "string"
        }
      ],
      "stateMutability": "view",
      "type": "function"
    }
  ],
  "bytecode": "0x60806040523480156200001157600080fd5b50604051620013bd380380620013bd833981810160405281019062000037919062000095565b806000806101000a81548173ffffffffffffffffffffffffffffffffffffffff021916908373ffffffffffffffffffffffffffffffffffffffff160217905550506200010f565b6000815190506200008f81620000f5565b92915050565b600060208284031215620000a857600080fd5b6000620000b8848285016200007e565b91505092915050565b6000620000ce82620000d5565b9050919050565b600073ffffffffffffffffffffffffffffffffffffffff82169050919050565b6200010081620000c1565b81146200010c57600080fd5b50565b61129e806200011f6000396000f3fe608060405234801561001057600080fd5b50600436106100575760003560e01c80631750a3d01461005c578063853671b914610078578063b13c744b14610094578063bc6eeb51146100c6578063d47ec969146100f9575b600080fd5b61007660048036038101906100719190610b02565b610115565b005b610092600480360381019061008d91906109ee565b61020c565b005b6100ae60048036038101906100a99190610ad9565b610463565b6040516100bd93929190610eb3565b60405180910390f35b6100e060048036038101906100db91906109ad565b610515565b6040516100f09493929190610d80565b60405180910390f35b610113600480360381019061010e9190610a5a565b610685565b005b60008054906101000a900473ffffffffffffffffffffffffffffffffffffffff168073ffffffffffffffffffffffffffffffffffffffff163373ffffffffffffffffffffffffffffffffffffffff16146101a4576040517f08c379a000000000000000000000000000000000000000000000000000000000815260040161019b90610e93565b60405180910390fd5b60405180606001604052808481526020018381526020016000815250600160008581526020019081526020016000206000820151816000015560208201518160010190805190602001906101f992919061088d565b5060408201518160020155905050505050565b60008054906101000a900473ffffffffffffffffffffffffffffffffffffffff168073ffffffffffffffffffffffffffffffffffffffff163373ffffffffffffffffffffffffffffffffffffffff161461029b576040517f08c379a000000000000000000000000000000000000000000000000000000000815260040161029290610e93565b60405180910390fd5b828260008251116102e1576040517f08c379a00000000000000000000000000000000000000000000000000000000081526004016102d890610e33565b60405180910390fd5b6000815111610325576040517f08c379a000000000000000000000000000000000000000000000000000000000815260040161031c90610e13565b60405180910390fd5b600015156002836040516103399190610d52565b908152602001604051809103902060010160019054906101000a900460ff1615151461039a576040517f08c379a000000000000000000000000000000000000000000000000000000000815260040161039190610e73565b60405180910390fd5b6040518060800160405280868152602001600015158152602001600115158152602001858152506002866040516103d19190610d52565b908152602001604051809103902060008201518160000190805190602001906103fb92919061088d565b5060208201518160010160006101000a81548160ff02191690831515021790555060408201518160010160016101000a81548160ff021916908315150217905550606082015181600201908051906020019061045892919061088d565b509050505050505050565b600160205280600052604060002060009150905080600001549080600101805461048c90611031565b80601f01602080910402602001604051908101604052809291908181526020018280546104b890611031565b80156105055780601f106104da57610100808354040283529160200191610505565b820191906000526020600020905b8154815290600101906020018083116104e857829003601f168201915b5050505050908060020154905083565b60028180516020810182018051848252602083016020850120818352809550505050505060009150905080600001805461054e90611031565b80601f016020809104026020016040519081016040528092919081815260200182805461057a90611031565b80156105c75780601f1061059c576101008083540402835291602001916105c7565b820191906000526020600020905b8154815290600101906020018083116105aa57829003601f168201915b5050505050908060010160009054906101000a900460ff16908060010160019054906101000a900460ff169080600201805461060290611031565b80601f016020809104026020016040519081016040528092919081815260200182805461062e90611031565b801561067b5780601f106106505761010080835404028352916020019161067b565b820191906000526020600020905b81548152906001019060200180831161065e57829003601f168201915b5050505050905084565b82816001151560028360405161069b9190610d52565b908152602001604051809103902060010160019054906101000a900460ff161515146106fc576040517f08c379a00000000000000000000000000000000000000000000000000000000081526004016106f390610df3565b60405180910390fd5b60028260405161070c9190610d52565b908152602001604051809103902060020160405160200161072d9190610d69565b60405160208183030381529060405280519060200120816040516020016107549190610d52565b60405160208183030381529060405280519060200120146107aa576040517f08c379a00000000000000000000000000000000000000000000000000000000081526004016107a190610e53565b60405180910390fd5b600015156002836040516107be9190610d52565b908152602001604051809103902060010160009054906101000a900460ff1615151461081f576040517f08c379a000000000000000000000000000000000000000000000000000000000815260040161081690610dd3565b60405180910390fd5b60016002866040516108319190610d52565b908152602001604051809103902060010160006101000a81548160ff0219169083151502179055506001806000868152602001908152602001600020600201600082825461087f9190610f83565b925050819055505050505050565b82805461089990611031565b90600052602060002090601f0160209004810192826108bb5760008555610902565b82601f106108d457805160ff1916838001178555610902565b82800160010185558215610902579182015b828111156109015782518255916020019190600101906108e6565b5b50905061090f9190610913565b5090565b5b8082111561092c576000816000905550600101610914565b5090565b600061094361093e84610f16565b610ef1565b90508281526020810184848401111561095b57600080fd5b610966848285610fef565b509392505050565b600082601f83011261097f57600080fd5b813561098f848260208601610930565b91505092915050565b6000813590506109a781611251565b92915050565b6000602082840312156109bf57600080fd5b600082013567ffffffffffffffff8111156109d957600080fd5b6109e58482850161096e565b91505092915050565b60008060408385031215610a0157600080fd5b600083013567ffffffffffffffff811115610a1b57600080fd5b610a278582860161096e565b925050602083013567ffffffffffffffff811115610a4457600080fd5b610a508582860161096e565b9150509250929050565b600080600060608486031215610a6f57600080fd5b600084013567ffffffffffffffff811115610a8957600080fd5b610a958682870161096e565b9350506020610aa686828701610998565b925050604084013567ffffffffffffffff811115610ac357600080fd5b610acf8682870161096e565b9150509250925092565b600060208284031215610aeb57600080fd5b6000610af984828501610998565b91505092915050565b60008060408385031215610b1557600080fd5b6000610b2385828601610998565b925050602083013567ffffffffffffffff811115610b4057600080fd5b610b4c8582860161096e565b9150509250929050565b610b5f81610fd9565b82525050565b6000610b7082610f5c565b610b7a8185610f67565b9350610b8a818560208601610ffe565b610b9381611121565b840191505092915050565b6000610ba982610f5c565b610bb38185610f78565b9350610bc3818560208601610ffe565b80840191505092915050565b60008154610bdc81611031565b610be68186610f78565b94506001821660008114610c015760018114610c1257610c45565b60ff19831686528186019350610c45565b610c1b85610f47565b60005b83811015610c3d57815481890152600182019150602081019050610c1e565b838801955050505b50505092915050565b6000610c5b600d83610f67565b9150610c6682611132565b602082019050919050565b6000610c7e601483610f67565b9150610c898261115b565b602082019050919050565b6000610ca1601283610f67565b9150610cac82611184565b602082019050919050565b6000610cc4601583610f67565b9150610ccf826111ad565b602082019050919050565b6000610ce7601b83610f67565b9150610cf2826111d6565b602082019050919050565b6000610d0a601b83610f67565b9150610d15826111ff565b602082019050919050565b6000610d2d600e83610f67565b9150610d3882611228565b602082019050919050565b610d4c81610fe5565b82525050565b6000610d5e8284610b9e565b915081905092915050565b6000610d758284610bcf565b915081905092915050565b60006080820190508181036000830152610d9a8187610b65565b9050610da96020830186610b56565b610db66040830185610b56565b8181036060830152610dc88184610b65565b905095945050505050565b60006020820190508181036000830152610dec81610c4e565b9050919050565b60006020820190508181036000830152610e0c81610c71565b9050919050565b60006020820190508181036000830152610e2c81610c94565b9050919050565b60006020820190508181036000830152610e4c81610cb7565b9050919050565b60006020820190508181036000830152610e6c81610cda565b9050919050565b60006020820190508181036000830152610e8c81610cfd565b9050919050565b60006020820190508181036000830152610eac81610d20565b9050919050565b6000606082019050610ec86000830186610d43565b8181036020830152610eda8185610b65565b9050610ee96040830184610d43565b949350505050565b6000610efb610f0c565b9050610f078282611063565b919050565b6000604051905090565b600067ffffffffffffffff821115610f3157610f306110f2565b5b610f3a82611121565b9050602081019050919050565b60008190508160005260206000209050919050565b600081519050919050565b600082825260208201905092915050565b600081905092915050565b6000610f8e82610fe5565b9150610f9983610fe5565b9250827fffffffffffffffffffffffffffffffffffffffffffffffffffffffffffffffff03821115610fce57610fcd611094565b5b828201905092915050565b60008115159050919050565b6000819050919050565b82818337600083830152505050565b60005b8381101561101c578082015181840152602081019050611001565b8381111561102b576000848401525b50505050565b6000600282049050600182168061104957607f821691505b6020821081141561105d5761105c6110c3565b5b50919050565b61106c82611121565b810181811067ffffffffffffffff8211171561108b5761108a6110f2565b5b80604052505050565b7f4e487b7100000000000000000000000000000000000000000000000000000000600052601160045260246000fd5b7f4e487b7100000000000000000000000000000000000000000000000000000000600052602260045260246000fd5b7f4e487b7100000000000000000000000000000000000000000000000000000000600052604160045260246000fd5b6000601f19601f8301169050919050565b7f416c726561647920566f74656400000000000000000000000000000000000000600082015250565b7f456e7465722076616c696420766f746572204964000000000000000000000000600082015250565b7f6661636520636f64652072657175697265640000000000000000000000000000600082015250565b7f76616c696420766f746572204964206e65656465640000000000000000000000600082015250565b7f46616369616c2056657269666963617469696f6e204661696c65640000000000600082015250565b7f566f74657220496420616c726561647920726567697374657265640000000000600082015250565b7f4e6f7420617574686f72697a6564000000000000000000000000000000000000600082015250565b61125a81610fe5565b811461126557600080fd5b5056fea2646970667358221220188dcfcacaaa0eab03f26e1e53ed005faf299251af51350b04775863f30a4b7264736f6c63430008030033",
  "linkReferences": {},
  "deployedLinkReferences": {}
}